{
  "contractName": "emailstore",
  "abi": [
    {
      "anonymous": false,
      "inputs": [
        {
          "indexed": false,
          "name": "email",
          "type": "string"
        },
        {
          "indexed": false,
          "name": "action",
          "type": "string"
        },
        {
          "indexed": false,
          "name": "timestamp",
          "type": "string"
        },
        {
          "indexed": false,
          "name": "assignto",
          "type": "string"
        },
        {
          "indexed": false,
          "name": "emailid",
          "type": "string"
        }
      ],
      "name": "actionArr",
      "type": "event"
    },
    {
      "anonymous": false,
      "inputs": [
        {
          "indexed": false,
          "name": "fileName",
          "type": "string"
        },
        {
          "indexed": false,
          "name": "filepath",
          "type": "string"
        },
        {
          "indexed": false,
          "name": "uploadDate",
          "type": "string"
        },
        {
          "indexed": false,
          "name": "typeFile",
          "type": "string"
        },
        {
          "indexed": false,
          "name": "email",
          "type": "string"
        },
        {
          "indexed": false,
          "name": "emailId",
          "type": "string"
        }
      ],
      "name": "fileArr",
      "type": "event"
    },
    {
      "anonymous": false,
      "inputs": [
        {
          "indexed": false,
          "name": "_data",
          "type": "string"
        }
      ],
      "name": "print_string",
      "type": "event"
    },
    {
      "anonymous": false,
      "inputs": [
        {
          "indexed": false,
          "name": "_dataarr",
          "type": "bytes32[]"
        }
      ],
      "name": "print_array",
      "type": "event"
    },
    {
      "constant": false,
      "inputs": [
        {
          "name": "_id",
          "type": "bytes32"
        },
        {
          "name": "_from",
          "type": "string"
        },
        {
          "name": "_to",
          "type": "string"
        },
        {
          "name": "_subject",
          "type": "string"
        },
        {
          "name": "_content",
          "type": "string"
        },
        {
          "name": "_CreateDate",
          "type": "string"
        },
        {
          "name": "_docType",
          "type": "string"
        },
        {
          "name": "_date",
          "type": "string"
        },
        {
          "name": "_no",
          "type": "string"
        },
        {
          "name": "_allto",
          "type": "string"
        },
        {
          "name": "_timestamp",
          "type": "string"
        }
      ],
      "name": "setEmail",
      "outputs": [],
      "payable": false,
      "stateMutability": "nonpayable",
      "type": "function"
    },
    {
      "constant": false,
      "inputs": [
        {
          "name": "_fromOfDoc",
          "type": "string"
        },
        {
          "name": "_fromOfDocWay",
          "type": "string"
        },
        {
          "name": "_inBound",
          "type": "string"
        },
        {
          "name": "_isPrivate",
          "type": "bool"
        }
      ],
      "name": "setEmail2",
      "outputs": [],
      "payable": false,
      "stateMutability": "nonpayable",
      "type": "function"
    },
    {
      "constant": true,
      "inputs": [
        {
          "name": "_id",
          "type": "bytes32"
        }
      ],
      "name": "keep",
      "outputs": [
        {
          "name": "",
          "type": "bytes32"
        }
      ],
      "payable": false,
      "stateMutability": "view",
      "type": "function"
    },
    {
      "constant": false,
      "inputs": [
        {
          "name": "_filename",
          "type": "string"
        },
        {
          "name": "_filepath",
          "type": "string"
        },
        {
          "name": "_uploadDate",
          "type": "string"
        },
        {
          "name": "_emailadd",
          "type": "string"
        },
        {
          "name": "_typeFile",
          "type": "string"
        },
        {
          "name": "_emailid",
          "type": "bytes32"
        }
      ],
      "name": "setFile",
      "outputs": [],
      "payable": false,
      "stateMutability": "nonpayable",
      "type": "function"
    },
    {
      "constant": false,
      "inputs": [
        {
          "name": "_email",
          "type": "string"
        },
        {
          "name": "_action",
          "type": "string"
        },
        {
          "name": "_Timestamp",
          "type": "string"
        },
        {
          "name": "_assignTo",
          "type": "string"
        },
        {
          "name": "_emailida",
          "type": "bytes32"
        }
      ],
      "name": "setAction",
      "outputs": [],
      "payable": false,
      "stateMutability": "nonpayable",
      "type": "function"
    },
    {
      "constant": false,
      "inputs": [
        {
          "name": "_id",
          "type": "bytes32"
        }
      ],
      "name": "getmail",
      "outputs": [],
      "payable": false,
      "stateMutability": "nonpayable",
      "type": "function"
    },
    {
      "constant": true,
      "inputs": [
        {
          "name": "_id",
          "type": "bytes32"
        }
      ],
      "name": "getmailone",
      "outputs": [
        {
          "name": "",
          "type": "string"
        }
      ],
      "payable": false,
      "stateMutability": "view",
      "type": "function"
    },
    {
      "constant": true,
      "inputs": [
        {
          "name": "_id",
          "type": "bytes32"
        }
      ],
      "name": "getmailtwo",
      "outputs": [
        {
          "name": "",
          "type": "string"
        }
      ],
      "payable": false,
      "stateMutability": "view",
      "type": "function"
    },
    {
      "constant": false,
      "inputs": [
        {
          "name": "_id",
          "type": "bytes32"
        }
      ],
      "name": "saveAllActionToEvent",
      "outputs": [],
      "payable": false,
      "stateMutability": "nonpayable",
      "type": "function"
    },
    {
      "constant": false,
      "inputs": [
        {
          "name": "_id",
          "type": "bytes32"
        }
      ],
      "name": "saveAllFileToEvent",
      "outputs": [],
      "payable": false,
      "stateMutability": "nonpayable",
      "type": "function"
    }
  ],
  "bytecode": "0x608060405234801561001057600080fd5b506136bb806100206000396000f3006080604052600436106100a4576000357c0100000000000000000000000000000000000000000000000000000000900463ffffffff16806314acb74a146100a95780633465b7871461023857806335107db01461028557806353675292146105725780636892a7181461061c5780636d0a357d1461064d578063a3a160e91461074e578063dc5b6903146107f8578063de48d57414610829578063ed2beec314610972575b600080fd5b3480156100b557600080fd5b50610236600480360381019080803590602001908201803590602001908080601f0160208091040260200160405190810160405280939291908181526020018383808284378201915050505050509192919290803590602001908201803590602001908080601f0160208091040260200160405190810160405280939291908181526020018383808284378201915050505050509192919290803590602001908201803590602001908080601f0160208091040260200160405190810160405280939291908181526020018383808284378201915050505050509192919290803590602001908201803590602001908080601f0160208091040260200160405190810160405280939291908181526020018383808284378201915050505050509192919290803590602001908201803590602001908080601f016020809104026020016040519081016040528093929190818152602001838380828437820191505050505050919291929080356000191690602001909291905050506109a3565b005b34801561024457600080fd5b506102676004803603810190808035600019169060200190929190505050610aca565b60405180826000191660001916815260200191505060405180910390f35b34801561029157600080fd5b506105706004803603810190808035600019169060200190929190803590602001908201803590602001908080601f0160208091040260200160405190810160405280939291908181526020018383808284378201915050505050509192919290803590602001908201803590602001908080601f0160208091040260200160405190810160405280939291908181526020018383808284378201915050505050509192919290803590602001908201803590602001908080601f0160208091040260200160405190810160405280939291908181526020018383808284378201915050505050509192919290803590602001908201803590602001908080601f0160208091040260200160405190810160405280939291908181526020018383808284378201915050505050509192919290803590602001908201803590602001908080601f0160208091040260200160405190810160405280939291908181526020018383808284378201915050505050509192919290803590602001908201803590602001908080601f0160208091040260200160405190810160405280939291908181526020018383808284378201915050505050509192919290803590602001908201803590602001908080601f0160208091040260200160405190810160405280939291908181526020018383808284378201915050505050509192919290803590602001908201803590602001908080601f0160208091040260200160405190810160405280939291908181526020018383808284378201915050505050509192919290803590602001908201803590602001908080601f0160208091040260200160405190810160405280939291908181526020018383808284378201915050505050509192919290803590602001908201803590602001908080601f0160208091040260200160405190810160405280939291908181526020018383808284378201915050505050509192919290505050610ad4565b005b34801561057e57600080fd5b506105a16004803603810190808035600019169060200190929190505050610cf2565b6040518080602001828103825283818151815260200191508051906020019080838360005b838110156105e15780820151818401526020810190506105c6565b50505050905090810190601f16801561060e5780820380516001836020036101000a031916815260200191505b509250505060405180910390f35b34801561062857600080fd5b5061064b6004803603810190808035600019169060200190929190505050611439565b005b34801561065957600080fd5b5061074c600480360381019080803590602001908201803590602001908080601f0160208091040260200160405190810160405280939291908181526020018383808284378201915050505050509192919290803590602001908201803590602001908080601f0160208091040260200160405190810160405280939291908181526020018383808284378201915050505050509192919290803590602001908201803590602001908080601f0160208091040260200160405190810160405280939291908181526020018383808284378201915050505050509192919290803515159060200190929190505050611554565b005b34801561075a57600080fd5b5061077d6004803603810190808035600019169060200190929190505050611630565b6040518080602001828103825283818151815260200191508051906020019080838360005b838110156107bd5780820151818401526020810190506107a2565b50505050905090810190601f1680156107ea5780820380516001836020036101000a031916815260200191505b509250505060405180910390f35b34801561080457600080fd5b506108276004803603810190808035600019169060200190929190505050611eb5565b005b34801561083557600080fd5b50610970600480360381019080803590602001908201803590602001908080601f0160208091040260200160405190810160405280939291908181526020018383808284378201915050505050509192919290803590602001908201803590602001908080601f0160208091040260200160405190810160405280939291908181526020018383808284378201915050505050509192919290803590602001908201803590602001908080601f0160208091040260200160405190810160405280939291908181526020018383808284378201915050505050509192919290803590602001908201803590602001908080601f0160208091040260200160405190810160405280939291908181526020018383808284378201915050505050509192919290803560001916906020019092919050505061263c565b005b34801561097e57600080fd5b506109a1600480360381019080803560001916906020019092919050505061273f565b005b600560008260001916600019168152602001908152602001600020600e0160c0604051908101604052808881526020018781526020018681526020018581526020018481526020018360001916815250908060018154018082558091505090600182039060005260206000209060060201600090919290919091506000820151816000019080519060200190610a3a92919061356a565b506020820151816001019080519060200190610a5792919061356a565b506040820151816002019080519060200190610a7492919061356a565b506060820151816003019080519060200190610a9192919061356a565b506080820151816004019080519060200190610aae92919061356a565b5060a08201518160050190600019169055505050505050505050565b6000819050919050565b89600560008d600019166000191681526020019081526020016000206000019080519060200190610b069291906135ea565b5088600560008d600019166000191681526020019081526020016000206003019080519060200190610b399291906135ea565b5087600560008d600019166000191681526020019081526020016000206004019080519060200190610b6c9291906135ea565b5086600560008d600019166000191681526020019081526020016000206005019080519060200190610b9f9291906135ea565b5085600560008d600019166000191681526020019081526020016000206006019080519060200190610bd29291906135ea565b5084600560008d600019166000191681526020019081526020016000206007019080519060200190610c059291906135ea565b5083600560008d600019166000191681526020019081526020016000206008019080519060200190610c389291906135ea565b5082600560008d600019166000191681526020019081526020016000206009019080519060200190610c6b9291906135ea565b5081600560008d60001916600019168152602001908152602001600020600c019080519060200190610c9e9291906135ea565b5080600560008d60001916600019168152602001908152602001600020600d019080519060200190610cd19291906135ea565b50610cdb8b610aca565b600081600019169055505050505050505050505050565b6060806060806060806060806060610e2b6040805190810160405280600b81526020017f646174656f66446f633a27000000000000000000000000000000000000000000815250600560008d600019166000191681526020019081526020016000206008018054600181600116156101000203166002900480601f016020809104026020016040519081016040528092919081815260200182805460018160011615610100020316600290048015610deb5780601f10610dc057610100808354040283529160200191610deb565b820191906000526020600020905b815481529060010190602001808311610dce57829003601f168201915b50505050506040805190810160405280600281526020017f272c000000000000000000000000000000000000000000000000000000000000815250612d80565b9750610f586040805190810160405280600b81526020017f646f634e756d6265723a27000000000000000000000000000000000000000000815250600560008d600019166000191681526020019081526020016000206009018054600181600116156101000203166002900480601f016020809104026020016040519081016040528092919081815260200182805460018160011615610100020316600290048015610f185780601f10610eed57610100808354040283529160200191610f18565b820191906000526020600020905b815481529060010190602001808311610efb57829003601f168201915b50505050506040805190810160405280600281526020017f272c000000000000000000000000000000000000000000000000000000000000815250612d80565b96506110856040805190810160405280600781526020017f616c6c546f3a2700000000000000000000000000000000000000000000000000815250600560008d60001916600019168152602001908152602001600020600c018054600181600116156101000203166002900480601f0160208091040260200160405190810160405280929190818152602001828054600181600116156101000203166002900480156110455780601f1061101a57610100808354040283529160200191611045565b820191906000526020600020905b81548152906001019060200180831161102857829003601f168201915b50505050506040805190810160405280600281526020017f272c000000000000000000000000000000000000000000000000000000000000815250612d80565b95506111b26040805190810160405280601081526020017f66726f6d4f66446f63756d656e743a2700000000000000000000000000000000815250600560008d600019166000191681526020019081526020016000206001018054600181600116156101000203166002900480601f0160208091040260200160405190810160405280929190818152602001828054600181600116156101000203166002900480156111725780601f1061114757610100808354040283529160200191611172565b820191906000526020600020905b81548152906001019060200180831161115557829003601f168201915b50505050506040805190810160405280600281526020017f272c000000000000000000000000000000000000000000000000000000000000815250612d80565b94506112df6040805190810160405280601381526020017f66726f6d4f66446f63756d656e745761793a2700000000000000000000000000815250600560008d600019166000191681526020019081526020016000206002018054600181600116156101000203166002900480601f01602080910402602001604051908101604052809291908181526020018280546001816001161561010002031660029004801561129f5780601f106112745761010080835404028352916020019161129f565b820191906000526020600020905b81548152906001019060200180831161128257829003601f168201915b50505050506040805190810160405280600281526020017f272c000000000000000000000000000000000000000000000000000000000000815250612d80565b935061140c6040805190810160405280600e81526020017f696e426f756e645f747970653a27000000000000000000000000000000000000815250600560008d60001916600019168152602001908152602001600020600a018054600181600116156101000203166002900480601f0160208091040260200160405190810160405280929190818152602001828054600181600116156101000203166002900480156113cc5780601f106113a1576101008083540402835291602001916113cc565b820191906000526020600020905b8154815290600101906020018083116113af57829003601f168201915b50505050506040805190810160405280600281526020017f272c000000000000000000000000000000000000000000000000000000000000815250612d80565b925061141a88888888613016565b9150611427828585612d80565b90508098505050505050505050919050565b60608061144583611630565b915061145083610cf2565b905061146d82826020604051908101604052806000815250612d80565b600290805190602001906114829291906135ea565b507fa5014519207066148cceb1209c0da9b5bc063b5c80fb25da53261714be79574b6002604051808060200182810382528381815460018160011615610100020316600290048152602001915080546001816001161561010002031660029004801561152f5780601f106115045761010080835404028352916020019161152f565b820191906000526020600020905b81548152906001019060200180831161151257829003601f168201915b50509250505060405180910390a16115468361273f565b61154f83611eb5565b505050565b60008054905084600560008360001916600019168152602001908152602001600020600101908051906020019061158c9291906135ea565b508360056000836000191660001916815260200190815260200160002060020190805190602001906115bf9291906135ea565b5082600560008360001916600019168152602001908152602001600020600a0190805190602001906115f29291906135ea565b5081600560008360001916600019168152602001908152602001600020600b0160006101000a81548160ff0219169083151502179055505050505050565b606080606080606080606080606080606061176c6040805190810160405280600681526020017f66726f6d3a270000000000000000000000000000000000000000000000000000815250600560008f600019166000191681526020019081526020016000206000018054600181600116156101000203166002900480601f01602080910402602001604051908101604052809291908181526020018280546001816001161561010002031660029004801561172c5780601f106117015761010080835404028352916020019161172c565b820191906000526020600020905b81548152906001019060200180831161170f57829003601f168201915b50505050506040805190810160405280600281526020017f272c000000000000000000000000000000000000000000000000000000000000815250612d80565b99506118996040805190810160405280600481526020017f746f3a2700000000000000000000000000000000000000000000000000000000815250600560008f600019166000191681526020019081526020016000206003018054600181600116156101000203166002900480601f0160208091040260200160405190810160405280929190818152602001828054600181600116156101000203166002900480156118595780601f1061182e57610100808354040283529160200191611859565b820191906000526020600020905b81548152906001019060200180831161183c57829003601f168201915b50505050506040805190810160405280600281526020017f272c000000000000000000000000000000000000000000000000000000000000815250612d80565b98506119c66040805190810160405280600981526020017f7375626a6563743a270000000000000000000000000000000000000000000000815250600560008f600019166000191681526020019081526020016000206004018054600181600116156101000203166002900480601f0160208091040260200160405190810160405280929190818152602001828054600181600116156101000203166002900480156119865780601f1061195b57610100808354040283529160200191611986565b820191906000526020600020905b81548152906001019060200180831161196957829003601f168201915b50505050506040805190810160405280600281526020017f272c000000000000000000000000000000000000000000000000000000000000815250612d80565b9750611af36040805190810160405280600981526020017f636f6e74656e743a270000000000000000000000000000000000000000000000815250600560008f600019166000191681526020019081526020016000206005018054600181600116156101000203166002900480601f016020809104026020016040519081016040528092919081815260200182805460018160011615610100020316600290048015611ab35780601f10611a8857610100808354040283529160200191611ab3565b820191906000526020600020905b815481529060010190602001808311611a9657829003601f168201915b50505050506040805190810160405280600281526020017f272c000000000000000000000000000000000000000000000000000000000000815250612d80565b9650611c206040805190810160405280600c81526020017f637265617465446174653a270000000000000000000000000000000000000000815250600560008f600019166000191681526020019081526020016000206006018054600181600116156101000203166002900480601f016020809104026020016040519081016040528092919081815260200182805460018160011615610100020316600290048015611be05780601f10611bb557610100808354040283529160200191611be0565b820191906000526020600020905b815481529060010190602001808311611bc357829003601f168201915b50505050506040805190810160405280600281526020017f272c000000000000000000000000000000000000000000000000000000000000815250612d80565b9550611d4d6040805190810160405280600981526020017f646f63547970653a270000000000000000000000000000000000000000000000815250600560008f600019166000191681526020019081526020016000206007018054600181600116156101000203166002900480601f016020809104026020016040519081016040528092919081815260200182805460018160011615610100020316600290048015611d0d5780601f10611ce257610100808354040283529160200191611d0d565b820191906000526020600020905b815481529060010190602001808311611cf057829003601f168201915b50505050506040805190810160405280600281526020017f272c000000000000000000000000000000000000000000000000000000000000815250612d80565b9450611e7a6040805190810160405280600b81526020017f74696d657374616d703a27000000000000000000000000000000000000000000815250600560008f60001916600019168152602001908152602001600020600d018054600181600116156101000203166002900480601f016020809104026020016040519081016040528092919081815260200182805460018160011615610100020316600290048015611e3a5780601f10611e0f57610100808354040283529160200191611e3a565b820191906000526020600020905b815481529060010190602001808311611e1d57829003601f168201915b50505050506040805190810160405280600281526020017f272c000000000000000000000000000000000000000000000000000000000000815250612d80565b9350611e878a8a8a612d80565b9250611e94878787612d80565b9150611ea1838386612d80565b9050809a5050505050505050505050919050565b6000606080606080606080600096505b600560008960001916600019168152602001908152602001600020600e018054905087101561263257600560008960001916600019168152602001908152602001600020600e0187815481101515611f1957fe5b90600052602060002090600602016000018054600181600116156101000203166002900480601f016020809104026020016040519081016040528092919081815260200182805460018160011615610100020316600290048015611fbe5780601f10611f9357610100808354040283529160200191611fbe565b820191906000526020600020905b815481529060010190602001808311611fa157829003601f168201915b50505050509550600560008960001916600019168152602001908152602001600020600e0187815481101515611ff057fe5b90600052602060002090600602016001018054600181600116156101000203166002900480601f0160208091040260200160405190810160405280929190818152602001828054600181600116156101000203166002900480156120955780601f1061206a57610100808354040283529160200191612095565b820191906000526020600020905b81548152906001019060200180831161207857829003601f168201915b50505050509450600560008960001916600019168152602001908152602001600020600e01878154811015156120c757fe5b90600052602060002090600602016002018054600181600116156101000203166002900480601f01602080910402602001604051908101604052809291908181526020018280546001816001161561010002031660029004801561216c5780601f106121415761010080835404028352916020019161216c565b820191906000526020600020905b81548152906001019060200180831161214f57829003601f168201915b50505050509350600560008960001916600019168152602001908152602001600020600e018781548110151561219e57fe5b90600052602060002090600602016004018054600181600116156101000203166002900480601f0160208091040260200160405190810160405280929190818152602001828054600181600116156101000203166002900480156122435780601f1061221857610100808354040283529160200191612243565b820191906000526020600020905b81548152906001019060200180831161222657829003601f168201915b50505050509250600560008960001916600019168152602001908152602001600020600e018781548110151561227557fe5b90600052602060002090600602016003018054600181600116156101000203166002900480601f01602080910402602001604051908101604052809291908181526020018280546001816001161561010002031660029004801561231a5780601f106122ef5761010080835404028352916020019161231a565b820191906000526020600020905b8154815290600101906020018083116122fd57829003601f168201915b50505050509150612366600560008a60001916600019168152602001908152602001600020600e018881548110151561234f57fe5b90600052602060002090600602016005015461336e565b90507f5985c02a26a38aba3a4d83e84ce9fddf05e89d8cc86ae4d499727e24c6373d638686868686866040518080602001806020018060200180602001806020018060200187810387528d818151815260200191508051906020019080838360005b838110156123e35780820151818401526020810190506123c8565b50505050905090810190601f1680156124105780820380516001836020036101000a031916815260200191505b5087810386528c818151815260200191508051906020019080838360005b8381101561244957808201518184015260208101905061242e565b50505050905090810190601f1680156124765780820380516001836020036101000a031916815260200191505b5087810385528b818151815260200191508051906020019080838360005b838110156124af578082015181840152602081019050612494565b50505050905090810190601f1680156124dc5780820380516001836020036101000a031916815260200191505b5087810384528a818151815260200191508051906020019080838360005b838110156125155780820151818401526020810190506124fa565b50505050905090810190601f1680156125425780820380516001836020036101000a031916815260200191505b50878103835289818151815260200191508051906020019080838360005b8381101561257b578082015181840152602081019050612560565b50505050905090810190601f1680156125a85780820380516001836020036101000a031916815260200191505b50878103825288818151815260200191508051906020019080838360005b838110156125e15780820151818401526020810190506125c6565b50505050905090810190601f16801561260e5780820380516001836020036101000a031916815260200191505b509c5050505050505050505050505060405180910390a18680600101975050611ec5565b5050505050505050565b600560008260001916600019168152602001908152602001600020600f0160a06040519081016040528087815260200186815260200185815260200184815260200183600019168152509080600181540180825580915050906001820390600052602060002090600502016000909192909190915060008201518160000190805190602001906126cd92919061356a565b5060208201518160010190805190602001906126ea92919061356a565b50604082015181600201908051906020019061270792919061356a565b50606082015181600301908051906020019061272492919061356a565b50608082015181600401906000191690555050505050505050565b60006060806060806060600095505b600560008860001916600019168152602001908152602001600020600f0180549050861015612d7757600560008860001916600019168152602001908152602001600020600f01868154811015156127a257fe5b90600052602060002090600502016000018054600181600116156101000203166002900480601f0160208091040260200160405190810160405280929190818152602001828054600181600116156101000203166002900480156128475780601f1061281c57610100808354040283529160200191612847565b820191906000526020600020905b81548152906001019060200180831161282a57829003601f168201915b50505050509450600560008860001916600019168152602001908152602001600020600f018681548110151561287957fe5b90600052602060002090600502016001018054600181600116156101000203166002900480601f01602080910402602001604051908101604052809291908181526020018280546001816001161561010002031660029004801561291e5780601f106128f35761010080835404028352916020019161291e565b820191906000526020600020905b81548152906001019060200180831161290157829003601f168201915b50505050509350600560008860001916600019168152602001908152602001600020600f018681548110151561295057fe5b90600052602060002090600502016002018054600181600116156101000203166002900480601f0160208091040260200160405190810160405280929190818152602001828054600181600116156101000203166002900480156129f55780601f106129ca576101008083540402835291602001916129f5565b820191906000526020600020905b8154815290600101906020018083116129d857829003601f168201915b50505050509250600560008860001916600019168152602001908152602001600020600f0186815481101515612a2757fe5b90600052602060002090600502016003018054600181600116156101000203166002900480601f016020809104026020016040519081016040528092919081815260200182805460018160011615610100020316600290048015612acc5780601f10612aa157610100808354040283529160200191612acc565b820191906000526020600020905b815481529060010190602001808311612aaf57829003601f168201915b50505050509150612b18600560008960001916600019168152602001908152602001600020600f0187815481101515612b0157fe5b90600052602060002090600502016004015461336e565b90507fb58ae8ec76c96e30b86dbe85750ebeb70526a5a33c3dd1f381e5c067328c00d6858585858560405180806020018060200180602001806020018060200186810386528b818151815260200191508051906020019080838360005b83811015612b90578082015181840152602081019050612b75565b50505050905090810190601f168015612bbd5780820380516001836020036101000a031916815260200191505b5086810385528a818151815260200191508051906020019080838360005b83811015612bf6578082015181840152602081019050612bdb565b50505050905090810190601f168015612c235780820380516001836020036101000a031916815260200191505b50868103845289818151815260200191508051906020019080838360005b83811015612c5c578082015181840152602081019050612c41565b50505050905090810190601f168015612c895780820380516001836020036101000a031916815260200191505b50868103835288818151815260200191508051906020019080838360005b83811015612cc2578082015181840152602081019050612ca7565b50505050905090810190601f168015612cef5780820380516001836020036101000a031916815260200191505b50868103825287818151815260200191508051906020019080838360005b83811015612d28578082015181840152602081019050612d0d565b50505050905090810190601f168015612d555780820380516001836020036101000a031916815260200191505b509a505050505050505050505060405180910390a1858060010196505061274e565b50505050505050565b6060806060806060806000808a965089955088945084518651885101016040519080825280601f01601f191660200182016040528015612dcf5781602001602082028038833980820191505090505b5093508392506000915060009050600091505b8651821015612e95578682815181101515612df957fe5b9060200101517f010000000000000000000000000000000000000000000000000000000000000090047f0100000000000000000000000000000000000000000000000000000000000000028382806001019350815181101515612e5857fe5b9060200101907effffffffffffffffffffffffffffffffffffffffffffffffffffffffffffff1916908160001a9053508180600101925050612de2565b600091505b8551821015612f4d578582815181101515612eb157fe5b9060200101517f010000000000000000000000000000000000000000000000000000000000000090047f0100000000000000000000000000000000000000000000000000000000000000028382806001019350815181101515612f1057fe5b9060200101907effffffffffffffffffffffffffffffffffffffffffffffffffffffffffffff1916908160001a9053508180600101925050612e9a565b600091505b8451821015613005578482815181101515612f6957fe5b9060200101517f010000000000000000000000000000000000000000000000000000000000000090047f0100000000000000000000000000000000000000000000000000000000000000028382806001019350815181101515612fc857fe5b9060200101907effffffffffffffffffffffffffffffffffffffffffffffffffffffffffffff1916908160001a9053508180600101925050612f52565b829750505050505050509392505050565b60608060608060608060606000808c97508b96508a95508994508451865188518a510101016040519080825280601f01601f19166020018201604052801561306d5781602001602082028038833980820191505090505b5093508392506000915060009050600091505b875182101561313357878281518110151561309757fe5b9060200101517f010000000000000000000000000000000000000000000000000000000000000090047f01000000000000000000000000000000000000000000000000000000000000000283828060010193508151811015156130f657fe5b9060200101907effffffffffffffffffffffffffffffffffffffffffffffffffffffffffffff1916908160001a9053508180600101925050613080565b600091505b86518210156131eb57868281518110151561314f57fe5b9060200101517f010000000000000000000000000000000000000000000000000000000000000090047f01000000000000000000000000000000000000000000000000000000000000000283828060010193508151811015156131ae57fe5b9060200101907effffffffffffffffffffffffffffffffffffffffffffffffffffffffffffff1916908160001a9053508180600101925050613138565b600091505b85518210156132a357858281518110151561320757fe5b9060200101517f010000000000000000000000000000000000000000000000000000000000000090047f010000000000000000000000000000000000000000000000000000000000000002838280600101935081518110151561326657fe5b9060200101907effffffffffffffffffffffffffffffffffffffffffffffffffffffffffffff1916908160001a90535081806001019250506131f0565b600091505b845182101561335b5784828151811015156132bf57fe5b9060200101517f010000000000000000000000000000000000000000000000000000000000000090047f010000000000000000000000000000000000000000000000000000000000000002838280600101935081518110151561331e57fe5b9060200101907effffffffffffffffffffffffffffffffffffffffffffffffffffffffffffff1916908160001a90535081806001019250506132a8565b8298505050505050505050949350505050565b6060806000806000606060206040519080825280601f01601f1916602001820160405280156133ac5781602001602082028038833980820191505090505b50945060009350600092505b6020831015613476578260080260020a876001900402600102915060007f010000000000000000000000000000000000000000000000000000000000000002827effffffffffffffffffffffffffffffffffffffffffffffffffffffffffffff19161415156134695781858581518110151561343057fe5b9060200101907effffffffffffffffffffffffffffffffffffffffffffffffffffffffffffff1916908160001a90535083806001019450505b82806001019350506133b8565b836040519080825280601f01601f1916602001820160405280156134a95781602001602082028038833980820191505090505b509050600092505b8383101561355d5784838151811015156134c757fe5b9060200101517f010000000000000000000000000000000000000000000000000000000000000090047f010000000000000000000000000000000000000000000000000000000000000002818481518110151561352057fe5b9060200101907effffffffffffffffffffffffffffffffffffffffffffffffffffffffffffff1916908160001a90535082806001019350506134b1565b8095505050505050919050565b828054600181600116156101000203166002900490600052602060002090601f016020900481019282601f106135ab57805160ff19168380011785556135d9565b828001600101855582156135d9579182015b828111156135d85782518255916020019190600101906135bd565b5b5090506135e6919061366a565b5090565b828054600181600116156101000203166002900490600052602060002090601f016020900481019282601f1061362b57805160ff1916838001178555613659565b82800160010185558215613659579182015b8281111561365857825182559160200191906001019061363d565b5b509050613666919061366a565b5090565b61368c91905b80821115613688576000816000905550600101613670565b5090565b905600a165627a7a72305820852ecb453a119b50ff561d851f00b8ce4a0c5d85f5497c14eb8c17c225dfa69e0029",
  "source": "pragma solidity ^0.4.21;\r\n\r\ncontract emailstore {\r\n    bytes32 id;\r\n    string act;\r\n    string emails;\r\n    string reply;\r\n    bool ispriv;\r\n    struct EmailAttributes {\r\n        string from;\r\n        string fromOfDocument;\r\n        string fromOfDocumentWay;\r\n        string to;\r\n        string subject;\r\n        string content;\r\n        string createDate;\r\n        string docType;\r\n        string dateofDoc;\r\n        string docNumber;\r\n        string inBound_type;\r\n        bool isPrivate;\r\n        string allTo;\r\n        string timestamp;\r\n        FileAttributes[] files;\r\n        Actions[] actions;\r\n    }\r\n    \r\n       struct FileAttributes{\r\n        string fileName;\r\n        string filepath;\r\n        string uploadDate;\r\n        string Email;\r\n        string typeFile;   \r\n        bytes32 EmailId;\r\n    }  \r\n  \r\n      struct Actions{\r\n        string Email;\r\n        string Action;\r\n        string Timestamp;\r\n        string assignTo;\r\n        bytes32 EmailIdA;\r\n    }\r\n\r\n    event actionArr(string email, string action, string timestamp , string assignto , string emailid);\r\n    event fileArr(string fileName, string filepath, string uploadDate, string typeFile, string email, string emailId);\r\n    mapping(bytes32 => EmailAttributes) Emails;\r\n    event print_string(string _data);\r\n    event print_array(bytes32[] _dataarr);\r\n    function setEmail(bytes32 _id, string _from, string _to\r\n    , string _subject, string _content, string _CreateDate \r\n    , string _docType, string _date, string _no,\r\n    string _allto, string _timestamp\r\n    )public {\r\n        Emails[_id].from = _from;\r\n        Emails[_id].to = _to;\r\n        Emails[_id].subject = _subject;\r\n        Emails[_id].content = _content;\r\n        Emails[_id].createDate = _CreateDate;\r\n        Emails[_id].docType = _docType;\r\n        Emails[_id].dateofDoc = _date;\r\n        Emails[_id].docNumber = _no;\r\n        Emails[_id].allTo = _allto;\r\n        Emails[_id].timestamp = _timestamp;\r\n        id = keep(_id);\r\n    }\r\n    \r\n    function setEmail2(string _fromOfDoc, string _fromOfDocWay, \r\n    string _inBound , bool _isPrivate)public{\r\n        var _id = id;\r\n        Emails[_id].fromOfDocument = _fromOfDoc;\r\n        Emails[_id].fromOfDocumentWay = _fromOfDocWay;\r\n        Emails[_id].inBound_type = _inBound;\r\n        Emails[_id].isPrivate = _isPrivate;\r\n    }\r\n    \r\n    function keep (bytes32 _id) constant returns (bytes32){\r\n        return _id;\r\n    }\r\n    function setFile(string _filename, string _filepath, string _uploadDate, string _emailadd, string _typeFile ,bytes32 _emailid)public {\r\n           Emails[_emailid].files.push(FileAttributes(_filename, \r\n                                                    _filepath, \r\n                                                    _uploadDate, \r\n                                                    _emailadd, \r\n                                                    _typeFile, \r\n                                                    _emailid));\r\n    }\r\n\r\n    function setAction(string _email, string _action, string _Timestamp, string _assignTo, bytes32 _emailida) public{\r\n        Emails[_emailida].actions.push(Actions(_email, \r\n                                               _action, \r\n                                               _Timestamp, \r\n                                               _assignTo, \r\n                                               _emailida));\r\n        \r\n    }\r\n \r\nfunction getmail(bytes32 _id)public  {\r\n        var emails1 = getmailone(_id);\r\n        var emails2 = getmailtwo(_id);\r\n        emails = concatString3(emails1,emails2,'');\r\n        emit print_string(emails);\r\n        saveAllActionToEvent(_id);\r\n        saveAllFileToEvent(_id);  \r\n}\r\n\r\nfunction getmailone(bytes32 _id)view returns (string) {\r\n       string memory a = concatString3('from:\\'',Emails[_id].from, \"\\',\");\r\n       string memory b = concatString3('to:\\'',Emails[_id].to, \"\\',\");\r\n       string memory c = concatString3('subject:\\'',Emails[_id].subject, \"\\',\");\r\n       string memory d = concatString3('content:\\'',Emails[_id].content, \"\\',\");\r\n       string memory e = concatString3('createDate:\\'',Emails[_id].createDate,\"\\',\");\r\n       string memory f = concatString3('docType:\\'',Emails[_id].docType,\"\\',\");\r\n       string memory timestamp = concatString3('timestamp:\\'',Emails[_id].timestamp,\"\\',\");\r\n        var em1 = concatString3(a,b,c);\r\n        var em2 = concatString3(d,e,f);\r\n        var emails1 = concatString3(em1,em2,timestamp);\r\n         return emails1;\r\n}\r\nfunction getmailtwo(bytes32 _id) view returns (string){ \r\n       string memory g = concatString3('dateofDoc:\\'',Emails[_id].dateofDoc,\"\\',\");\r\n       string memory h = concatString3('docNumber:\\'',Emails[_id].docNumber,\"\\',\");\r\n       string memory i = concatString3('allTo:\\'',Emails[_id].allTo,\"\\',\");\r\n       string memory j = concatString3('fromOfDocument:\\'',Emails[_id].fromOfDocument,\"\\',\");\r\n       string memory k = concatString3('fromOfDocumentWay:\\'',Emails[_id].fromOfDocumentWay,\"\\',\");\r\n       string memory l = concatString3('inBound_type:\\'',Emails[_id].inBound_type,\"\\',\");\r\n        var emailkeep = concatString(g,h,i,j);\r\n       var emails2 =  concatString3(emailkeep,k,l);\r\n       return emails2;\r\n}\r\n\r\nfunction saveAllActionToEvent(bytes32 _id) public {\r\n    for(uint i = 0; i < Emails[_id].actions.length; i++){\r\n            string memory a1 = Emails[_id].actions[i].Email;\r\n            string memory b1 = Emails[_id].actions[i].Action;\r\n            string memory c1 = Emails[_id].actions[i].Timestamp;\r\n            string memory d1 = Emails[_id].actions[i].assignTo;\r\n            string memory e1 = bytes32ToString(Emails[_id].actions[i].EmailIdA);\r\n\r\n            emit actionArr(a1, b1, c1, d1, e1);\r\n    }\r\n}\r\n\r\nfunction saveAllFileToEvent(bytes32 _id) public {\r\n    for(uint i = 0; i < Emails[_id].files.length; i++){\r\n            string memory a2 = Emails[_id].files[i].fileName;\r\n            string memory b2 = Emails[_id].files[i].filepath;\r\n            string memory c2 = Emails[_id].files[i].uploadDate;\r\n            string memory d2 = Emails[_id].files[i].typeFile;\r\n            string memory e2 = Emails[_id].files[i].Email;\r\n            string memory f2 = bytes32ToString(Emails[_id].files[i].EmailId);\r\n            emit fileArr(a2, b2, c2, d2, e2, f2);\r\n    }\r\n}\r\n\r\n\r\n  function bytes32ArrayToString(bytes32[] data)internal pure returns (string) {\r\n        bytes memory bytesString = new bytes(data.length * 32);\r\n        uint urlLength;\r\n        for (uint i=0; i<data.length; i++) {\r\n            for (uint j=0; j<32; j++) {\r\n                byte char = byte(bytes32(uint(data[i]) * 2 ** (8 * j)));\r\n                if (char != 0) {\r\n                    bytesString[urlLength] = char;\r\n                    urlLength += 1;\r\n                }\r\n            }\r\n        }\r\n        bytes memory bytesStringTrimmed = new bytes(urlLength);\r\n        for (i=0; i<urlLength; i++) {\r\n            bytesStringTrimmed[i] = bytesString[i];\r\n        }\r\n        return string(bytesStringTrimmed);\r\n    }    \r\n\r\n function bytes32ToString(bytes32 x)internal pure returns (string) {\r\n    bytes memory bytesString = new bytes(32);\r\n    uint charCount = 0;\r\n    for (uint j = 0; j < 32; j++) {\r\n        byte char = byte(bytes32(uint(x) * 2 ** (8 * j)));\r\n        if (char != 0) {\r\n            bytesString[charCount] = char;\r\n            charCount++;\r\n        }\r\n    }\r\n    bytes memory bytesStringTrimmed = new bytes(charCount);\r\n    for (j = 0; j < charCount; j++) {\r\n        bytesStringTrimmed[j] = bytesString[j];\r\n    }\r\n    return string(bytesStringTrimmed);\r\n}\r\n\r\nfunction stringToBytes32(string memory source)internal pure returns (bytes32 result) {\r\n    bytes memory tempEmptyStringTest = bytes(source);\r\n    if (tempEmptyStringTest.length == 0) {\r\n        return 0x0;\r\n    }\r\n\r\n    assembly {\r\n        result := mload(add(source, 32))\r\n    }\r\n}\r\n  \r\nfunction concatString(string str_1, string str_2, string str_3, string str_4)internal pure returns (string) {\r\n    \r\n       bytes memory b_str_1 = bytes(str_1);\r\n       bytes memory b_str_2 = bytes(str_2);\r\n       bytes memory b_str_3 = bytes(str_3);\r\n       bytes memory b_str_4 = bytes(str_4);\r\n       string memory str_5 = new string(b_str_1.length + b_str_2.length + b_str_3.length + b_str_4.length);\r\n       bytes memory b_str_5 = bytes(str_5);\r\n       \r\n       uint i = 0;\r\n       uint j = 0;\r\n       for (i = 0; i < b_str_1.length; i++) b_str_5[j++] = b_str_1[i];\r\n       for (i = 0; i < b_str_2.length; i++) b_str_5[j++] = b_str_2[i];\r\n       for (i = 0; i < b_str_3.length; i++) b_str_5[j++] = b_str_3[i];\r\n       for (i = 0; i < b_str_4.length; i++) b_str_5[j++] = b_str_4[i];\r\n        return string(b_str_5);\r\n   }\r\n\r\nfunction concatString3(string str_1, string str_2, string str_3)internal pure returns (string) {\r\n       bytes memory b_str_1 = bytes(str_1);\r\n       bytes memory b_str_2 = bytes(str_2);\r\n       bytes memory b_str_3 = bytes(str_3);\r\n       string memory str_4 = new string(b_str_1.length + b_str_2.length + b_str_3.length);\r\n       bytes memory b_str_4 = bytes(str_4);\r\n       \r\n       uint i = 0;\r\n       uint j = 0;\r\n       for (i = 0; i < b_str_1.length; i++) b_str_4[j++] = b_str_1[i];\r\n       for (i = 0; i < b_str_2.length; i++) b_str_4[j++] = b_str_2[i];\r\n       for (i = 0; i < b_str_3.length; i++) b_str_4[j++] = b_str_3[i];\r\n        return string(b_str_4);\r\n   }\r\n    \r\n}",
  "sourcePath": "C:\\Peach\\project smc\\contracts\\emailstore.sol",
  "compiler": {
    "name": "solc",
    "version": "0.4.24+commit.e67f0147.Emscripten.clang"
  },
  "schemaVersion": "2.0.0",
  "updatedAt": "2018-07-23T10:22:47.112Z"
}